:020000020000FC
:020000001BC023
:02000C001BC215
:10002C0058C13F065B4F666D7D077F6F0FEF0DBFAD
:10003C0008E00EBF0FEF0AB900270BB90FE307B9A1
:10004C00002708B9002704B9002705B901E000937F
:10005C0068000FE100936B0003B100930D010027C2
:10006C0000930401009305010093060100930B011A
:10007C0000930C010093090100930A0101E0009325
:10008C000701009308010027009310010093110150
:10009C0001E0009312010093130100270093140157
:1000AC0000931501002700938000009381000093BA
:1000BC008500009384000EE10093890004E800930E
:1000CC00880002E000936F000DE0009381007894AB
:1000DC0003B10F710F3119F4002700930F01009138
:1000EC000E01003031F00A9500930E01003009F436
:1000FC00D4D0009109010130B1F10330A1F10430E9
:10010C0009F022C000910A01023078F4009110012C
:10011C008AD000930101109300010091110183D04A
:10012C0000930301109302012DC0009112017BD0AA
:10013C0000930101109300010091130174D00093FE
:10014C000301109302011EC0009105016CD00093B5
:10015C000301109302010091060165D00093010187
:10016C00109300010FC0009107015DD000930101B5
:10017C00109300010091080156D0009303011093D5
:10018C00020100C008B10F6008B931E020910001F4
:10019C0051D05FD056D01BB11078202F2F77122B57
:1001AC001BB908B100710E6008B970D008B10F60AE
:1001BC0008B932E0209101013DD04BD042D01BB1A7
:1001CC001078202F2F77122B1BB908B100710D60FE
:1001DC0008B95CD008B10F6008B933E02091020176
:1001EC0029D037D02ED01BB11078202F2F77122B7F
:1001FC001BB908B100710B6008B948D008B10F6089
:10020C0008B934E02091030115D023D01AD01BB1CA
:10021C001078202F2F77122B1BB908B100710760B3
:10022C0008B934D055CF11270A3018F00A5013955D
:10023C00FBCF0895EEE2F0E0E20F2227F21F0491CB
:10024C00089510910B01113011F45F9A08955F9885
:10025C00089510910901123029F0133019F014305F
:10026C0009F0089510910B01103079F010910A01EA
:10027C00103029F0333041F0343031F00895313002
:10028C0019F0323009F008950027089541E058EC38
:10029C005A95F1F74A95D9F7089500911501013057
:1002AC0009F463C100910F01013049F0023049F0AB
:1002BC00033049F0043049F0053049F008950AD173
:1002CC00089511D1089558D10895C0D108952FD112
:1002DC0008950F931F932F93EF93FF930FB70F93E3
:1002EC0000910B0111E0012700930B0100910C010F
:1002FC000395023008F426C0002700930C010091EE
:10030C00040103950C33D8F00027009304011091DD
:10031C00050113951C3380F01127109305012091D2
:10032C0006012395283128F02227209306013AD084
:10033C000CC02093060109C01093050106C0009360
:10034C00040103C000930C0125C00091150101307C
:10035C00F9F0009114010130E9F4009106011091BB
:10036C0010010117B9F40091050110911101011749
:10037C0089F40091070110911201011759F40091B1
:10038C00080110911301011729F401E000931501E4
:10039C00449A00C00F910FBFFF91EF912F911F91C5
:1003AC000F911895009107010395109108011230D7
:1003BC0051F0143051F0163041F0193031F01B303F
:1003CC0021F01FE103C01CE101C01EE1011768F020
:1003DC0061F001E0009307012091080123952D3075
:1003EC0008F021E020930801089500930701089577
:1003FC0010910801123051F0143051F0163041F0C8
:10040C00193031F01B3021F01FE108951CE10895E3
:10041C001EE1089510911301123051F0143051F077
:10042C00163041F0193031F01B3021F01FE10895E6
:10043C001CE108951EE108950F931F932F93EF93E2
:10044C00FF930FB70F9303B110910D01202F2127AC
:10045C0000930D0120FF09C000FD07C001E00093CF
:10046C000F0105E000930E012CC021FF09C001FD16
:10047C0007C002E000930F0105E000930E0121C0BC
:10048C0022FF09C002FD07C003E000930F0105E045
:10049C0000930E0116C023FF09C003FD07C004E042
:1004AC0000930F0105E000930E010BC024FF09C05F
:1004BC0004FD07C005E000930F0105E000930E0159
:1004CC0000C00F910FBFFF91EF912F911F910F91D2
:1004DC0018950895009109010395053008F000273F
:1004EC0000930901089500910901023029F00330AD
:1004FC0061F0043099F0089500910A0103950230DF
:10050C0008F0002700930A01089500910A01039551
:10051C00023008F0002700930A01089500910A01A7
:10052C000395043008F0002700930A010895009108
:10053C0015010130D1F000910901023059F003305E
:10054C0029F0013039F0043049F0089501E00093AE
:10055C000901089500E000930901089501E000935A
:10056C00140100E000930901089500270093150180
:10057C000093140144980895009109010230C1F1CF
:10058C00033009F44BC0043009F401C008951091F4
:10059C000A01103039F0113071F01230A9F013301B
:1005AC00F1F00895209110012395283108F02227AD
:1005BC002093100108952091110123952C3308F0FC
:1005CC00222720931101089520911201239522DFF7
:1005DC00211710F009F021E02093120108952091C9
:1005EC00130123952D3008F021E020931301089579
:1005FC0010910A01103049F02091050123952C33FC
:10060C0008F02227209305010895209106012395D7
:10061C00283108F0222720930601089510910A0131
:10062C00103049F02091080123952D3008F021E07D
:10063C00209308010895209107012395D9DE2117F5
:10064C0010F009F021E020930701089500910901B1
:10065C00023009F43BC0033009F450C0043009F4F3
:10066C0001C0089510910A01103039F0113079F061
:10067C001230B9F0133001F108952091100120309F
:10068C0011F427E101C02A952093100108952091BF
:10069C001101203011F42BE301C02A952093110194
:1006AC00089520911201213019F4B4DE212F01C0DC
:1006BC002A9520931201089520911301213011F4F1
:1006CC002CE001C02A9520931301089510910A0182
:1006DC00103051F020910501203011F42BE301C0B2
:1006EC002A9520930501089520910601203011F4DC
:1006FC0027E101C02A9520930601089510910A0163
:10070C00103051F020910801213011F42CE001C07F
:10071C002A9520930801089520910701213019F49E
:0E072C0067DE212F01C02A9520930701089552
:00000001FF
